{
  "contractName": "MockFlashLoanReceiver",
  "abi": [
    {
      "inputs": [
        {
          "internalType": "contract ILendingPoolAddressesProvider",
          "name": "_provider",
          "type": "address"
        }
      ],
      "payable": false,
      "stateMutability": "nonpayable",
      "type": "constructor"
    },
    {
      "anonymous": false,
      "inputs": [
        {
          "indexed": false,
          "internalType": "address",
          "name": "_reserve",
          "type": "address"
        },
        {
          "indexed": false,
          "internalType": "uint256",
          "name": "_amount",
          "type": "uint256"
        },
        {
          "indexed": false,
          "internalType": "uint256",
          "name": "_fee",
          "type": "uint256"
        }
      ],
      "name": "ExecutedWithFail",
      "type": "event"
    },
    {
      "anonymous": false,
      "inputs": [
        {
          "indexed": false,
          "internalType": "address",
          "name": "_reserve",
          "type": "address"
        },
        {
          "indexed": false,
          "internalType": "uint256",
          "name": "_amount",
          "type": "uint256"
        },
        {
          "indexed": false,
          "internalType": "uint256",
          "name": "_fee",
          "type": "uint256"
        }
      ],
      "name": "ExecutedWithSuccess",
      "type": "event"
    },
    {
      "anonymous": false,
      "inputs": [
        {
          "indexed": false,
          "internalType": "uint256",
          "name": "tokens",
          "type": "uint256"
        },
        {
          "indexed": false,
          "internalType": "uint256",
          "name": "_amount",
          "type": "uint256"
        }
      ],
      "name": "trademade",
      "type": "event"
    },
    {
      "payable": true,
      "stateMutability": "payable",
      "type": "fallback"
    },
    {
      "constant": false,
      "inputs": [
        {
          "internalType": "address",
          "name": "_reserve",
          "type": "address"
        },
        {
          "internalType": "uint256",
          "name": "_amount",
          "type": "uint256"
        },
        {
          "internalType": "uint256",
          "name": "_fee",
          "type": "uint256"
        }
      ],
      "name": "executeOperation",
      "outputs": [
        {
          "internalType": "uint256",
          "name": "returnedAmount",
          "type": "uint256"
        }
      ],
      "payable": false,
      "stateMutability": "nonpayable",
      "type": "function"
    }
  ],
  "bytecode": "0x608060405234801561001057600080fd5b50604051610f5f380380610f5f8339818101604052602081101561003357600080fd5b810190808051906020019092919050505080806000806101000a81548173ffffffffffffffffffffffffffffffffffffffff021916908373ffffffffffffffffffffffffffffffffffffffff1602179055505050610ec9806100966000396000f3fe60806040526004361061001e5760003560e01c80638b514f8c14610020575b005b34801561002c57600080fd5b506100836004803603606081101561004357600080fd5b81019080803573ffffffffffffffffffffffffffffffffffffffff1690602001909291908035906020019092919080359060200190929190505050610099565b6040518082815260200191505060405180910390f35b60008084905060006100ab30876105bc565b851115610120576040517f08c379a00000000000000000000000000000000000000000000000000000000081526004018080602001828103825260208152602001807f496e76616c69642062616c616e636520666f722074686520636f6e747261637481525060200191505060405180910390fd5b8173ffffffffffffffffffffffffffffffffffffffff1663095ea7b373b4ca10f43caf503b7aa0a77757b99c78212d6b92876040518363ffffffff1660e01b8152600401808373ffffffffffffffffffffffffffffffffffffffff1673ffffffffffffffffffffffffffffffffffffffff16815260200182815260200192505050602060405180830381600087803b1580156101bb57600080fd5b505af11580156101cf573d6000803e3d6000fd5b505050506040513d60208110156101e557600080fd5b810190808051906020019092919050505050600073c4f86802c76df98079f45a60ba906bdf86ad90c19050600060c84201905060008273ffffffffffffffffffffffffffffffffffffffff166395e3c50b896000856040518463ffffffff1660e01b8152600401808481526020018381526020018281526020019350505050602060405180830381600087803b15801561027e57600080fd5b505af1158015610292573d6000803e3d6000fd5b505050506040513d60208110156102a857600080fd5b81019080805190602001909291905050509050600073692f391bcc85cefce8c237c01e1f636bbd70ea4d90508073ffffffffffffffffffffffffffffffffffffffff1663809a9e5573eeeeeeeeeeeeeeeeeeeeeeeeeeeeeeeeeeeeeeee88856040518463ffffffff1660e01b8152600401808473ffffffffffffffffffffffffffffffffffffffff1673ffffffffffffffffffffffffffffffffffffffff1681526020018373ffffffffffffffffffffffffffffffffffffffff1673ffffffffffffffffffffffffffffffffffffffff1681526020018281526020019350505050604080518083038186803b1580156103a057600080fd5b505afa1580156103b4573d6000803e3d6000fd5b505050506040513d60408110156103ca57600080fd5b8101908080519060200190929190805190602001909291905050505080955050600073692f391bcc85cefce8c237c01e1f636bbd70ea4d905060008173ffffffffffffffffffffffffffffffffffffffff16637a2a0456858a8a6040518463ffffffff1660e01b8152600401808373ffffffffffffffffffffffffffffffffffffffff1673ffffffffffffffffffffffffffffffffffffffff168152602001828152602001925050506020604051808303818588803b15801561048c57600080fd5b505af11580156104a0573d6000803e3d6000fd5b50505050506040513d60208110156104b757600080fd5b810190808051906020019092919050505090507f132a96c48c42d5d1849a433d6c10bf8fa3ee20954a258dc2634eab0c5b3d60f7818c604051808381526020018281526020019250505060405180910390a16105258c6105208c8e6107f390919063ffffffff16565b61087b565b7f7d94e9d0c906b8d7b2b52a581b9e9ba728aa6f8cd8532bd87243d193f47401be8c8c8c604051808473ffffffffffffffffffffffffffffffffffffffff1673ffffffffffffffffffffffffffffffffffffffff168152602001838152602001828152602001935050505060405180910390a16105ab8a8c6107f390919063ffffffff16565b985050505050505050509392505050565b60008060009054906101000a900473ffffffffffffffffffffffffffffffffffffffff1673ffffffffffffffffffffffffffffffffffffffff1663b5722bb56040518163ffffffff1660e01b815260040160206040518083038186803b15801561062557600080fd5b505afa158015610639573d6000803e3d6000fd5b505050506040513d602081101561064f57600080fd5b810190808051906020019092919050505073ffffffffffffffffffffffffffffffffffffffff166317bfdd576040518163ffffffff1660e01b815260040160206040518083038186803b1580156106a557600080fd5b505afa1580156106b9573d6000803e3d6000fd5b505050506040513d60208110156106cf57600080fd5b810190808051906020019092919050505073ffffffffffffffffffffffffffffffffffffffff168273ffffffffffffffffffffffffffffffffffffffff161415610732578273ffffffffffffffffffffffffffffffffffffffff163190506107ed565b8173ffffffffffffffffffffffffffffffffffffffff166370a08231846040518263ffffffff1660e01b8152600401808273ffffffffffffffffffffffffffffffffffffffff1673ffffffffffffffffffffffffffffffffffffffff16815260200191505060206040518083038186803b1580156107af57600080fd5b505afa1580156107c3573d6000803e3d6000fd5b505050506040513d60208110156107d957600080fd5b810190808051906020019092919050505090505b92915050565b600080828401905083811015610871576040517f08c379a000000000000000000000000000000000000000000000000000000000815260040180806020018281038252601b8152602001807f536166654d6174683a206164646974696f6e206f766572666c6f77000000000081525060200191505060405180910390fd5b8091505092915050565b60008060009054906101000a900473ffffffffffffffffffffffffffffffffffffffff1673ffffffffffffffffffffffffffffffffffffffff1663ed6ff7606040518163ffffffff1660e01b815260040160206040518083038186803b1580156108e457600080fd5b505afa1580156108f8573d6000803e3d6000fd5b505050506040513d602081101561090e57600080fd5b8101908080519060200190929190505050905061092c818484610931565b505050565b6000809054906101000a900473ffffffffffffffffffffffffffffffffffffffff1673ffffffffffffffffffffffffffffffffffffffff1663b5722bb56040518163ffffffff1660e01b815260040160206040518083038186803b15801561099857600080fd5b505afa1580156109ac573d6000803e3d6000fd5b505050506040513d60208110156109c257600080fd5b810190808051906020019092919050505073ffffffffffffffffffffffffffffffffffffffff166317bfdd576040518163ffffffff1660e01b815260040160206040518083038186803b158015610a1857600080fd5b505afa158015610a2c573d6000803e3d6000fd5b505050506040513d6020811015610a4257600080fd5b810190808051906020019092919050505073ffffffffffffffffffffffffffffffffffffffff168273ffffffffffffffffffffffffffffffffffffffff161415610ad2578273ffffffffffffffffffffffffffffffffffffffff166108fc829081150290604051600060405180830381858888f19350505050158015610acc573d6000803e3d6000fd5b50610afe565b610afd83828473ffffffffffffffffffffffffffffffffffffffff16610b039092919063ffffffff16565b5b505050565b610bcf838473ffffffffffffffffffffffffffffffffffffffff1663a9059cbb905060e01b8484604051602401808373ffffffffffffffffffffffffffffffffffffffff1673ffffffffffffffffffffffffffffffffffffffff16815260200182815260200192505050604051602081830303815290604052907bffffffffffffffffffffffffffffffffffffffffffffffffffffffff19166020820180517bffffffffffffffffffffffffffffffffffffffffffffffffffffffff8381831617835250505050610bd4565b505050565b610bf38273ffffffffffffffffffffffffffffffffffffffff16610e1f565b610c65576040517f08c379a000000000000000000000000000000000000000000000000000000000815260040180806020018281038252601f8152602001807f5361666545524332303a2063616c6c20746f206e6f6e2d636f6e74726163740081525060200191505060405180910390fd5b600060608373ffffffffffffffffffffffffffffffffffffffff16836040518082805190602001908083835b60208310610cb45780518252602082019150602081019050602083039250610c91565b6001836020036101000a0380198251168184511680821785525050505050509050019150506000604051808303816000865af19150503d8060008114610d16576040519150601f19603f3d011682016040523d82523d6000602084013e610d1b565b606091505b509150915081610d93576040517f08c379a00000000000000000000000000000000000000000000000000000000081526004018080602001828103825260208152602001807f5361666545524332303a206c6f772d6c6576656c2063616c6c206661696c656481525060200191505060405180910390fd5b600081511115610e1957808060200190516020811015610db257600080fd5b8101908080519060200190929190505050610e18576040517f08c379a000000000000000000000000000000000000000000000000000000000815260040180806020018281038252602a815260200180610e6b602a913960400191505060405180910390fd5b5b50505050565b60008060007fc5d2460186f7233c927e7db2dcc703c0e500b653ca82273b7bfad8045d85a47060001b9050833f91506000801b8214158015610e615750808214155b9250505091905056fe5361666545524332303a204552433230206f7065726174696f6e20646964206e6f742073756363656564a265627a7a72315820dd7588537df5fd8e4a3076826a42cf7e2e95d99e161fba627b50dd3fcf6f1d6264736f6c634300050c0032",
  "source": "pragma solidity ^0.5.5;\n\nimport \"../../flashloan/base/FlashLoanReceiverBase.sol\";\nimport \"../tokens/MintableERC20.sol\";\nimport \"./KyberNetworkProxyInterface.sol\";\nimport \"./SimpleNetworkInterface.sol\";\nimport \"./UniswapExchange.sol\";\n\n\ncontract MockFlashLoanReceiver is FlashLoanReceiverBase {\n\n    using SafeMath for uint256;\n    event ExecutedWithFail(address _reserve, uint256 _amount, uint256 _fee);\n    event ExecutedWithSuccess(address _reserve, uint256 _amount, uint256 _fee);\n\n    ERC20 constant internal ETH_TOKEN_ADDRESS = ERC20(0x00eeeeeeeeeeeeeeeeeeeeeeeeeeeeeeeeeeeeeeee);\n\n\n    event trademade(uint256 tokens, uint256 _amount);\n\n    constructor(ILendingPoolAddressesProvider _provider) FlashLoanReceiverBase(_provider)  public {\n    }\n\n\n\n    function executeOperation(\n        address _reserve,\n        uint256 _amount,\n        uint256 _fee) external returns(uint256 returnedAmount) {\n        //mint to this contract the specific amount\n        MintableERC20 token = MintableERC20(_reserve);\n\n        uint minConversionRate;\n\n\n        //check the contract has the specified balance\n        require(_amount <= getBalanceInternal(address(this), _reserve), \"Invalid balance for the contract\");\n\n        //BOT LOGIC\n        token.approve(0xB4ca10f43caF503b7Aa0a77757B99c78212D6b92, _amount);\n        // Exchange for token -> eth\n        UniswapExchange followerUniSwapExchange = UniswapExchange(0xc4F86802c76DF98079F45A60Ba906bDf86Ad90C1);\n\n        uint256 DEADLINE = block.timestamp + 200;\n        // Swap token -> Eth\n        uint256 eth_bought = followerUniSwapExchange.tokenToEthSwapInput(_amount, 0, DEADLINE);\n\n        // Exchange for Eth -> token\n        //used to get minimum conversion rate\n        KyberNetworkProxyInterface kyberProxy = KyberNetworkProxyInterface(0x692f391bCc85cefCe8C237C01e1f636BbD70EA4D);\n\n        (minConversionRate,) = kyberProxy.getExpectedRate(ETH_TOKEN_ADDRESS, token, eth_bought);\n\n        //used to do the actual swap\n        SimpleNetworkInterface swapEth = SimpleNetworkInterface(0x692f391bCc85cefCe8C237C01e1f636BbD70EA4D);\n\n        // Swap Eth -> Token\n        uint token_bought = swapEth.swapEtherToToken.value(eth_bought)(token, minConversionRate); //first parameter is the token we wnat to recieve which will always be DAI and 2nd is conversion rate, which i just substituting as _fee for now.\n\n        emit trademade(token_bought, _amount);\n        //returning amount + fee to the destination\n        transferFundsBackToPoolInternal(_reserve, _amount.add(_fee));\n        emit ExecutedWithSuccess(_reserve, _amount, _fee);\n        return _amount.add(_fee);\n\n    }\n}\n",
  "sourcePath": "/Users/eswarasai/Sites/Aave-Flash-Loan/src/contracts/mocks/FlashLoan/MockFlashLoanReceiver.sol",
  "compiler": {
    "name": "solc",
    "version": "0.5.12+commit.7709ece9.Emscripten.clang"
  },
  "schemaVersion": "3.0.18",
  "updatedAt": "2019-11-11T18:01:45.256Z",
  "networkType": "ethereum",
  "devdoc": {
    "methods": {}
  },
  "userdoc": {
    "methods": {}
  }
}