{
  "contractName": "MockFlashLoanReceiver",
  "abi": [
    {
      "inputs": [
        {
          "name": "_provider",
          "type": "address"
        }
      ],
      "payable": false,
      "stateMutability": "nonpayable",
      "type": "constructor"
    },
    {
      "payable": true,
      "stateMutability": "payable",
      "type": "fallback"
    },
    {
      "anonymous": false,
      "inputs": [
        {
          "indexed": false,
          "name": "_reserve",
          "type": "address"
        },
        {
          "indexed": false,
          "name": "_amount",
          "type": "uint256"
        },
        {
          "indexed": false,
          "name": "_fee",
          "type": "uint256"
        }
      ],
      "name": "ExecutedWithFail",
      "type": "event"
    },
    {
      "anonymous": false,
      "inputs": [
        {
          "indexed": false,
          "name": "_reserve",
          "type": "address"
        },
        {
          "indexed": false,
          "name": "_amount",
          "type": "uint256"
        },
        {
          "indexed": false,
          "name": "_fee",
          "type": "uint256"
        }
      ],
      "name": "ExecutedWithSuccess",
      "type": "event"
    },
    {
      "constant": false,
      "inputs": [
        {
          "name": "_fail",
          "type": "bool"
        }
      ],
      "name": "setFailExecutionTransfer",
      "outputs": [],
      "payable": false,
      "stateMutability": "nonpayable",
      "type": "function"
    },
    {
      "constant": false,
      "inputs": [
        {
          "name": "_reserve",
          "type": "address"
        },
        {
          "name": "_amount",
          "type": "uint256"
        },
        {
          "name": "_fee",
          "type": "uint256"
        }
      ],
      "name": "executeOperation",
      "outputs": [
        {
          "name": "returnedAmount",
          "type": "uint256"
        }
      ],
      "payable": false,
      "stateMutability": "nonpayable",
      "type": "function"
    }
  ],
  "bytecode": "0x608060405260008060146101000a81548160ff02191690831515021790555034801561002a57600080fd5b50604051602080610bb88339810180604052602081101561004a57600080fd5b810190808051906020019092919050505080806000806101000a81548173ffffffffffffffffffffffffffffffffffffffff021916908373ffffffffffffffffffffffffffffffffffffffff1602179055505050610b0b806100ad6000396000f3fe6080604052600436106100295760003560e01c8063388f70f11461002b5780638b514f8c14610068575b005b34801561003757600080fd5b506100666004803603602081101561004e57600080fd5b810190808035151590602001909291905050506100e1565b005b34801561007457600080fd5b506100cb6004803603606081101561008b57600080fd5b81019080803573ffffffffffffffffffffffffffffffffffffffff16906020019092919080359060200190929190803590602001909291905050506100fe565b6040518082815260200191505060405180910390f35b80600060146101000a81548160ff02191690831515021790555050565b600080849050600060149054906101000a900460ff16156101a7577f816f6a6bc084e1996be1a831afa1af30763d0501b6b43b9e1922a11f347366d7858585604051808473ffffffffffffffffffffffffffffffffffffffff1673ffffffffffffffffffffffffffffffffffffffff168152602001838152602001828152602001935050505060405180910390a161019f838561043e90919063ffffffff16565b915050610437565b60008060009054906101000a900473ffffffffffffffffffffffffffffffffffffffff1673ffffffffffffffffffffffffffffffffffffffff1663b5722bb56040518163ffffffff1660e01b815260040160206040518083038186803b15801561021057600080fd5b505afa158015610224573d6000803e3d6000fd5b505050506040513d602081101561023a57600080fd5b810190808051906020019092919050505090508073ffffffffffffffffffffffffffffffffffffffff166317bfdd576040518163ffffffff1660e01b815260040160206040518083038186803b15801561029357600080fd5b505afa1580156102a7573d6000803e3d6000fd5b505050506040513d60208110156102bd57600080fd5b810190808051906020019092919050505073ffffffffffffffffffffffffffffffffffffffff168673ffffffffffffffffffffffffffffffffffffffff1614610390578173ffffffffffffffffffffffffffffffffffffffff1663a0712d68856040518263ffffffff1660e01b815260040180828152602001915050602060405180830381600087803b15801561035357600080fd5b505af1158015610367573d6000803e3d6000fd5b505050506040513d602081101561037d57600080fd5b8101908080519060200190929190505050505b6103ac866103a7868861043e90919063ffffffff16565b6104c6565b7f7d94e9d0c906b8d7b2b52a581b9e9ba728aa6f8cd8532bd87243d193f47401be868686604051808473ffffffffffffffffffffffffffffffffffffffff1673ffffffffffffffffffffffffffffffffffffffff168152602001838152602001828152602001935050505060405180910390a1610432848661043e90919063ffffffff16565b925050505b9392505050565b6000808284019050838110156104bc576040517f08c379a000000000000000000000000000000000000000000000000000000000815260040180806020018281038252601b8152602001807f536166654d6174683a206164646974696f6e206f766572666c6f77000000000081525060200191505060405180910390fd5b8091505092915050565b60008060009054906101000a900473ffffffffffffffffffffffffffffffffffffffff1673ffffffffffffffffffffffffffffffffffffffff1663ed6ff7606040518163ffffffff1660e01b815260040160206040518083038186803b15801561052f57600080fd5b505afa158015610543573d6000803e3d6000fd5b505050506040513d602081101561055957600080fd5b8101908080519060200190929190505050905061057781848461057c565b505050565b6000809054906101000a900473ffffffffffffffffffffffffffffffffffffffff1673ffffffffffffffffffffffffffffffffffffffff1663b5722bb56040518163ffffffff1660e01b815260040160206040518083038186803b1580156105e357600080fd5b505afa1580156105f7573d6000803e3d6000fd5b505050506040513d602081101561060d57600080fd5b810190808051906020019092919050505073ffffffffffffffffffffffffffffffffffffffff166317bfdd576040518163ffffffff1660e01b815260040160206040518083038186803b15801561066357600080fd5b505afa158015610677573d6000803e3d6000fd5b505050506040513d602081101561068d57600080fd5b810190808051906020019092919050505073ffffffffffffffffffffffffffffffffffffffff168273ffffffffffffffffffffffffffffffffffffffff16141561071d578273ffffffffffffffffffffffffffffffffffffffff166108fc829081150290604051600060405180830381858888f19350505050158015610717573d6000803e3d6000fd5b50610749565b61074883828473ffffffffffffffffffffffffffffffffffffffff1661074e9092919063ffffffff16565b5b505050565b61081a838473ffffffffffffffffffffffffffffffffffffffff1663a9059cbb905060e01b8484604051602401808373ffffffffffffffffffffffffffffffffffffffff1673ffffffffffffffffffffffffffffffffffffffff16815260200182815260200192505050604051602081830303815290604052907bffffffffffffffffffffffffffffffffffffffffffffffffffffffff19166020820180517bffffffffffffffffffffffffffffffffffffffffffffffffffffffff838183161783525050505061081f565b505050565b61083e8273ffffffffffffffffffffffffffffffffffffffff16610a6a565b6108b0576040517f08c379a000000000000000000000000000000000000000000000000000000000815260040180806020018281038252601f8152602001807f5361666545524332303a2063616c6c20746f206e6f6e2d636f6e74726163740081525060200191505060405180910390fd5b600060608373ffffffffffffffffffffffffffffffffffffffff16836040518082805190602001908083835b602083106108ff57805182526020820191506020810190506020830392506108dc565b6001836020036101000a0380198251168184511680821785525050505050509050019150506000604051808303816000865af19150503d8060008114610961576040519150601f19603f3d011682016040523d82523d6000602084013e610966565b606091505b5091509150816109de576040517f08c379a00000000000000000000000000000000000000000000000000000000081526004018080602001828103825260208152602001807f5361666545524332303a206c6f772d6c6576656c2063616c6c206661696c656481525060200191505060405180910390fd5b600081511115610a64578080602001905160208110156109fd57600080fd5b8101908080519060200190929190505050610a63576040517f08c379a000000000000000000000000000000000000000000000000000000000815260040180806020018281038252602a815260200180610ab6602a913960400191505060405180910390fd5b5b50505050565b60008060007fc5d2460186f7233c927e7db2dcc703c0e500b653ca82273b7bfad8045d85a47060001b9050833f91506000801b8214158015610aac5750808214155b9250505091905056fe5361666545524332303a204552433230206f7065726174696f6e20646964206e6f742073756363656564a165627a7a723058207993cd2e773fc5516d7511c8d9379abcde17eb7c269f29229cf22a22ea7fd9350029",
  "source": "pragma solidity ^0.5.0;\r\n\r\nimport \"../../../../node_modules/openzeppelin-solidity/contracts/math/SafeMath.sol\";\r\nimport \"../../flashloan/base/FlashLoanReceiverBase.sol\";\r\nimport \"../tokens/MintableERC20.sol\";\r\n\r\ncontract MockFlashLoanReceiver is FlashLoanReceiverBase {\r\n\r\n    using SafeMath for uint256;\r\n    event ExecutedWithFail(address _reserve, uint256 _amount, uint256 _fee);\r\n    event ExecutedWithSuccess(address _reserve, uint256 _amount, uint256 _fee);\r\n\r\n\r\n    bool failExecution = false;\r\n\r\n    constructor(ILendingPoolAddressesProvider _provider) FlashLoanReceiverBase(_provider)  public {\r\n    }\r\n\r\n    function setFailExecutionTransfer(bool _fail) public {\r\n        failExecution = _fail;\r\n    }\r\n\r\n    function executeOperation(\r\n        address _reserve,\r\n        uint256 _amount,\r\n        uint256 _fee) external returns(uint256 returnedAmount) {\r\n        //mint to this contract the specific amount\r\n        MintableERC20 token = MintableERC20(_reserve);\r\n\r\n\r\n        //check the contract has the specified balance\r\n        // require(_amount <= getBalanceInternal(address(this), _reserve), \"Invalid balance for the contract\");\r\n        \r\n        //BOT LOGIC\r\n\r\n        if(failExecution) {\r\n            emit ExecutedWithFail(_reserve, _amount, _fee);\r\n            //returns amount + fee, but does not transfer back funds\r\n            return _amount.add(_fee);\r\n        }\r\n\r\n        //execution does not fail - mint tokens and return them to the _destination\r\n        //note: if the reserve is eth, the mock contract must receive at least _fee ETH before calling executeOperation\r\n        INetworkMetadataProvider dataProvider = INetworkMetadataProvider(addressesProvider.getNetworkMetadataProvider());\r\n\r\n        if(_reserve != dataProvider.getEthereumAddress()) {\r\n            token.mint(_fee);\r\n        }\r\n        //returning amount + fee to the destination\r\n        transferFundsBackToPoolInternal(_reserve, _amount.add(_fee));\r\n        emit ExecutedWithSuccess(_reserve, _amount, _fee);\r\n        return _amount.add(_fee);\r\n\r\n    }\r\n}",
  "sourcePath": "F:/Aave-Flash-Loan/src/contracts/mocks/FlashLoan/MockFlashLoanReceiver.sol",
  "compiler": {
    "name": "solc",
    "version": "0.5.8+commit.23d335f2.Emscripten.clang"
  },
  "schemaVersion": "3.0.10",
  "updatedAt": "2019-11-07T17:00:12.468Z",
  "devdoc": {
    "methods": {}
  },
  "userdoc": {
    "methods": {}
  }
}